:100000006F00806F00000000B60700006A07000064
:1000100000000000000000000000000000000000E0
:1000200000000000000000000000000000000000D0
:100030006A070000000000006A07000000000000DE
:100040006A0700006A0700006A0700006A070000EC
:10005000281D00006A0700006A0700006A07000008
:100060006A0700006A0700006A0700006A070000CC
:100070006A0700006A0700006A0700006A070000BC
:100080006A0700006A0700006A0700006A070000AC
:100090006A0700006A0700006A070000000000000D
:1000A000634E050263C305042E86AA857D5515C2DD
:1000B00085466378B6006356C00006068606E36C84
:1000C000B6FE014563E4C500918D558D858205829C
:1000D000F5FA82808682C93F2E8582823305A04050
:1000E0006347B000B305B040C1B7B305B0408682E6
:1000F000653F3305A0408282868263C7050063495D
:1001000005005D372E858282B305B040E35B05FEB6
:100110003305A040513F3305B040828200003111C9
:1001200026C406C822C6AE84AA87B28599C60143F2
:1001300063D79600B684054319A00143A68633848D
:10014000964063530400014422863A853EC21AC099
:10015000EF007006024392472A87B30685000146E6
:10016000B385C4406342B00463D304008144B385C3
:1001700096003385E540630403026372B702930778
:10018000A002A38FF5FE9386F5FF637AD700238F35
:10019000F5FE9386E5FF6374D700A38EF5FEC2409B
:1001A0003244A24451018280B385C70003C50500D3
:1001B000B385C60005062380A5005DB7B70700E03C
:1001C0009387470F9843137707086DFF37273078D9
:1001D00013078708B70600E098C39386460F714758
:1001E0002543F1559C4293F70708EDFF3356E50090
:1001F0003D8A930770056364C30093070003B297B9
:10020000A20793E757089CC27117E31DB7FC8280D1
:10021000B7F700E09C4737F700E03E951C47898F11
:10022000E3CE07FE8280011106CE22CC26CA02C090
:100230002A836357050089E685473303A0403EC003
:10024000058A1304100619C213041004BA84591441
:100250001A853AC81AC22EC61AC4AD3DA547224314
:10026000B24542479376F50F63E1A70693860603EE
:1002700093F6F60F938714002380D4001A853AC8AA
:100280003EC62EC415359246A245B24742472A8340
:1002900063FBB602824699C69306D0022380D7003C
:1002A000938724003385E7409356F501AA9623806F
:1002B000070085860146FD17634BD600F240624475
:1002C000D24405618280BE8461B7A29655B7B3055A
:1002D000C70083C2070003C305000506238055003D
:1002E00023806700C9BF03A781C09306170023A41A
:1002F000D1C0938741D6BA9729472380E7008280EF
:1003000003A781C09306170023A4D1C0938741D6C9
:10031000BA97130740022380E700828003A781C0B9
:10032000938741D6BA9723800700A3800700B707B9
:1003300002409387070894430907F99A94C3D8C3E6
:10034000944393E6160094C3B707024098D3828083
:1003500051113707200006C422C2B717014098CBBD
:10036000114719E13707040098CB371401401C40AE
:100370007D771307F70FF98F93E707501CC03D45B2
:10038000413D930700021CC81244A2403D45310183
:1003900041B5511122C2371401401C407D7713072B
:1003A000F70FF98F05671307078006C426C0D98F9A
:1003B0001CC091471CC8B70720001CC83D45893D9B
:1003C0009307000204443D451CC89935A2401244DD
:1003D00013D514000589824431018280511106C46D
:1003E00022C2453F7D37753705459D3701458D371D
:1003F00037140140B70720001CC83D45113DB70721
:1004000004001CC81C407D771307F70FF98F93E792
:1004100007301CC03D45ED3B930700021CC83D451D
:10042000C53B91471CC81244A24013050006310188
:10043000C5B3B7170240D84FFD769386F60F136702
:100440001700D8CF984F1367170098CFD84B136772
:100450001700D8CBB7170140114798CB094798CB65
:100460009843758F8566938606D0558F98C39843B9
:10047000B7060040938686031377F7F013670708E3
:1004800098C3370701405C4393E707105CC3B70785
:10049000004023940702130700042396E7021D6718
:1004A00023AC070213070780239CE7001307001003
:1004B000239EE7000567130707132390E70205470C
:1004C000239AE700130710082390E7000567130736
:1004D00007102396E70003D7070013674700239010
:1004E000E700B70702403707004093870708130764
:1004F000070498C73707024054D3938641D614D7D0
:100500009306101954CF138741D2D8C71307101878
:1005100098C38280938781C6DC47111106CC22CA1A
:1005200026C82AC02EC20547639BE70423A4F1C056
:100530009D44553B13040004824733F7870005CFE1
:100540005D33FD140580EDF8793B13040002B70418
:1005500000809247E58F95C379337D14858075F8C7
:10056000753BB7070240F107D8437DFFE240524494
:10057000C244710182806933E9B75933F9BF094731
:10058000E396E7FEB71701403707040098CB3D45D7
:1005900041319D478544130700043EC682473AC453
:1005A00033F5E7003335A000A98C5D33B24722470D
:1005B000FD170583FDF30545613B2685513BD13B86
:1005C000C93BC13B014569330145593393040002DE
:1005D0000144B707008012473EC0FD143375F70091
:1005E0003335A000298CAD3382478583EDF4228515
:1005F00085335244E240C2447101CDB3B70700E0F5
:100600009387470F9C438280111122CA370400E070
:100610001304440F184006CC26C82AC01377070CD1
:100620009306000C630BD70002C6AE84D5E91C40CC
:1006300089C793F7070891E3D1378144E2405244D8
:100640002685C24471018280FD1699E61C4093E71D
:10065000070C1CC0DDB7AD46104093750608EDF5DC
:1006600001C63AC2613F12473386E4409D45B286D7
:1006700063D3C5009D4693253600014699E1138654
:10068000D6FF8247930537006800BE9536C43AC24C
:10069000252EB24582471247370600E0A2461306D0
:1006A000860F0CC20D45B385E700014683C20500E5
:1006B00005069307C6003383270023005300638594
:1006C000C6008505E314A6FE13864600136606F8E9
:1006D0002306C1003246369710C0E34E97F6B9BFE5
:1006E0000147E5BF511122C206C42E84313FA2400A
:1006F000228512443101828097010020938141D0EC
:1007000013814140096513050588731005308D4636
:10071000170500001305058F558D7310553013858F
:1007200041C0938541DA01466356B50010C11105F9
:10073000E34EB5FE17250000130505BB938541C0A8
:10074000138641C06388C500144194C11105910509
:10075000E39AC5FEB7F700E0154798C3856793870E
:10076000E731739017347300203073251034B93497
:1007700073250030A1347325303489347325203437
:10078000353CB70700E09387470F98431377070876
:100790006DFF0567130757A898C3B70700E0938755
:1007A000470F9843137707086DFF37B7AAAA1307B7
:1007B00037A898C301A0371702401C47B70680002E
:1007C000D58F1CC7AA8703C7070001E73385A74059
:1007D00082808507CDBF130141FAA2CAA6C886CC84
:1007E0002AC02EC23284B68402CA8347040093060C
:1007F0001400A30FF10081EBE64056445245C64475
:100800001301C105828036C6130750026380E702D8
:100810001246824785451305F1018297B24626C4E8
:100820003684D247A244AA973ECAC1B703471400F0
:100830001306000393060003A30FE10032C69307DB
:1008400024006312D7083E8481468147A54511A83C
:10085000139727000504BA970347F4FF8607B2975A
:100860008546130607FD1375F60FE3F3A5FE99C23F
:10087000A30FE1003EC8E14663D3F60036C8130675
:10088000C00681466318C700034704008546050477
:10089000A30FE1000346F101130740066305E606D6
:1008A0006367C702930780056302F60A9307300661
:1008B0006300F60C31D21246824785451305F101DB
:1008C000829726C4B9BF9306000236C6ADBF130790
:1008D0005007630AE602130780076309E606130759
:1008E0003007E31AE6FC3ECC9387440084403EC4C4
:1008F0002685C93DE247AA856359F008C2463246BB
:100900003818268525A0938744003EC485CA13065F
:10091000B6F818109336160088400146A945EFF046
:100920009F90C24632463818AA850810EFF02FFF74
:100930001246AA85281882478297E5B59307500783
:1009400018108546E30AF6FC8146F9B7884013067D
:1009500086FA938744001810854613361600C14561
:100960003EC4EFF05F8CC2463246AA85381875BF88
:10097000938744003EC49C40C2463246A30FF10018
:10098000381885451305F10155B71246268565B718
:100990001301C1FD32CA2A862EC836CC81451408FF
:1009A0001305406E06C63ACE3ED036C02D35B24055
:1009B0001301410282802A96AA876393C70082802E
:1009C0002380B7008507D5BF81476313F600828077
:1009D0003387F500834607003307F50085072300BA
:1009E000D700E5B7938781C6DC47111106CC22CA30
:1009F00026C82AC02EC205476392E70A23A4F1C085
:100A00009D44EFF05F8E13040004824733F78700A4
:100A100025CFEFF05F8DFD140580E5F8EFF05F8ED8
:100A200093042002FD14EFF01F8CEDFCEFF01F8FFC
:100A3000B7070240F107C443FDFC13050003EFF0C4
:100A40002FFD370702401307070850438D46A5477F
:100A5000631FD602938641D2130690023387D700D4
:100A600003470700860485071337C701D98CE3972E
:100A7000C7FE124511466C0026C6B9370145E24053
:100A80005244C24471018280EFF09F8769B74C43A2
:100A9000096513054518ED3D7D55D5B70947E39F19
:100AA000E7FC37070400B717014098CB3D45EFF04E
:100AB0002FF61D4481441307000482473AC47D1475
:100AC00033F5E7003335A000A98CEFF07F8822478B
:100AD000058765F40145EFF0BF872685EFF05F8756
:100AE000EFF03F8BEFF0FF8AEFF0BF8A0145EFF0A8
:100AF0003F860145EFF0DF851307000202C6B244CE
:100B00003AC0860426C6EFF0DF88854602476314A4
:100B1000D50293E4140026C6134414007D1765F330
:100B2000124511466C004D35EFF0BF866318850005
:100B3000EFF0DF8AA1B78946E312D5FEEFF01F8AF6
:100B4000A1BF411122C406C61304903E8A855945AF
:100B5000513D15E17D1405C4824713973701E347E2
:100B600007FE93F7077081CB594593050070EFF0AE
:100B70007F9A1305F0FDB240224441018280615505
:100B8000DDBF511106C422C226C0AA8425392A8499
:100B9000AA852685953C0965854513058519AD34DB
:100BA000A2401305140012448244310182801111C5
:100BB00022CA3704A55A26C806CCD14413040440DF
:100BC000EFF03F87938781C693060004D4CBA285BC
:100BD00085461305E00723A80700D4C7EFF09F93CD
:100BE000A2851305D007EFF0FF92A2851305E00759
:100BF000EFF05F92A2851305D007EFF0BF91854516
:100C00004145EFF03F9185454145EFF0BF904C00E5
:100C10001305D00702C2F933938781C63EC011ED98
:100C20001247C177B706A55AF98F6398D7000965AF
:100C30001305C519B9370145BDA0B7170140130702
:100C4000000298CB9843B70610FFFD16758FB706C4
:100C50001000558F98C3114798CB9843FD76938623
:100C6000F60F758F1367071098C3894694CB984386
:100C7000854541451377F7F01367070898C3824706
:100C8000D4C7EFF03F8985454145EFF0BF882C0080
:100C90004545893B11CD8247FD1423A60700E3910A
:100CA00004F2130590FCE2405244C2447101828078
:100CB0006C004145053B65F1A2470567130707F046
:100CC000F98F0567130707C06386E7001307003035
:100CD000E393E7FC32478547E31FF7FAB7050008BF
:100CE000594593852530EFF0FF8209651305451BB3
:100CF00091B71301C1FD22CE938781C69C4B06D0CC
:100D000026CC639B0718138481C65C4499CB8A85E3
:100D10004945C93919CD09651305C51C9D357D5552
:100D200019A071356DD582507244E244130141021D
:100D300082808244B7050080B70700E08505414501
:100D400093F4F47FDD8CEFF0EFFCB70500808505B0
:100D50004145EFF02FFC4C0011456931B7152200D9
:100D6000A1055D45EFF00FFB2C001145A539B70536
:100D7000000893850570594502C602C8EFF08FF947
:100D800081456145EFF00FF9B7152200938525F1F4
:100D90005D45EFF02FF8B7152200938525F15D45ED
:100DA000EFF04FF70C0811453539B74502901305A0
:100DB0000002EFF02FF6B7F5FF1F93854570114540
:100DC000EFF04FF5B7152700A1055D45EFF08FF463
:100DD0004C08594502CA3931AD33B7152200A10577
:100DE0005D45EFF02FF36C001145ED3EA245114536
:100DF000EFF04FF2B7152300A1055D45EFF08FF13D
:100E000092451145EFF00FF1B70700E09387470FC8
:100E10006397F404B2471547D183638FE702636E8B
:100E2000F70009476381E70211476384E702A5479A
:100E30001CC8930700045CC8B9A01947E399E7FEF2
:100E40009307600219A0930720021CC893070010A3
:100E5000DDB793074002D5BF93075002FDB7B70730
:100E600000E0938707386390F4028347F10013078B
:100E70000002638FE7026363F7020D476388E702AE
:100E800041476383E702B7675858938787851CCC2F
:100E90001C486D55E38907E8014571B51307000348
:100EA000E393E7FE994755B7854745B7B54771BF07
:100EB000954761BF411126C206C622C41D3DDD54BF
:100EC0003DE98145AA846145EFF0CFE48A85494533
:100ED000113E0244B70700E011451374F47F5D8CA6
:100EE000A285EFF02FE3B7152300A9055D45EFF0CC
:100EF0006FE2930544001145EFF0CFE1B7152300F1
:100F0000AD055D45EFF00FE1B7250240B105114594
:100F1000EFF04FE0B7152300B1055D45EFF08FDF2F
:100F2000B70505001145EFF0EFDEB7152300B50555
:100F30005D45EFF02FDEB240224426859244410108
:100F40008280B7E7FDBFD117AA972111ED9B26C676
:100F50003EC2B334F000138781C6144F3747535154
:100F600022C806CA2AC02EC413072745138481C687
:100F7000639AE604145018546313D502631C970651
:100F8000185401C71850110718D0653E35E5424482
:100F9000A245D240B244114561016FF0BFA4631B6A
:100FA000970482451545EFF0EFD6B70524005D455F
:100FB000EFF04FD68247374753511307274518CCD8
:100FC0001CD07DBF37575351130777256394E60232
:100FD00081456145EFF00FD4B7450440938505186E
:100FE00013050002EFF00FD3924781EFB70504C15C
:100FF000850521A8C13569DDD2404244B244610172
:101000008280B70504C19385154113051002EFF0E6
:101010006FD0B7C502909385051813052002EFF035
:101020006FCF85456145EFF0EFCE04D49DBF211110
:10103000B70700FF26C606CA22C82AC02EC4E98FF9
:101040003707000885446389E7003707FF1FB37738
:10105000E500998F93B41700938781C6984FB757CF
:10106000535193877725138481C66313F7025C4C31
:1010700002C2639397061C5002476306F700BA85C5
:101080001545EFF02FC9A2451145EFF0AFC8DDA01F
:1010900081456145EFF00FC8184CB747535193870E
:1010A00027456312F70EB745844193850510130554
:1010B0000002EFF02FC6B7C591049385050813050C
:1010C0001002EFF02FC5F165938545181305200236
:1010D000EFF04FC485473EC2DDCC1848B70500424B
:1010E000F5475D17850563E0E702B707003EC507D2
:1010F000B3D7E700B7050042858B850589C7B7C51B
:1011000000429385452513053002EFF0AFC01C481F
:10111000B79575FC0547ED17938555806366F70015
:10112000B79575FC9385958013054002EFF08FBE4F
:10113000B7950290890513055002EFF0AFBD8245C7
:101140001545EFF02FBDA2451145EFF0AFBC92471A
:1011500091CBB70524005D45EFF0CFBB85456145D8
:10116000EFF04FBBB7575351938777251CCC82477D
:1011700044CC1CD081C4EFF0DF9CAA841C5026858F
:1011800091071CD021A03D33E30F05F0D24042442B
:10119000B24461018280B79502908905130530023F
:1011A00069BF311122C606C826C4EFF09FB45D5452
:1011B00021E12A849307107D372502404C00310538
:1011C0003EC002C2BD3B924413F7140001C78247E0
:1011D000FD17FDF33725024081453105C1883AC02E
:1011E000B93589E4024709C76D5419A0130440FDBD
:1011F000C24022853244A24451018280411106C678
:1012000022C4EFF01FAF19C55D54B24022852244BD
:10121000410182802A84372502408A8541051533A1
:10122000824713D777001377171019EB3767585891
:10123000938781C61307878598CF0547D8D3F1B721
:10124000B705674537250240938535121105C5332B
:10125000B795EFCD372502409385B59A1105C13B6F
:10126000B705674537250240938535122105C133FF
:10127000B795EFCD372502409385B59A2105453BBB
:10128000B70567453725024093853512130545029A
:10129000793BB795EFCD372502409385B59A130575
:1012A00045027133372502408A8541055939824705
:1012B00013D777001377171035DBB9B7B72702407C
:1012C000054798C3B71702403707080123A2070054
:1012D0001307170898C337079F0098C737170240AE
:1012E0001C4393966700E3DD06FE5C43B71602409D
:1012F000F19B93E727005CC32147DC42B18BE39E5F
:10130000E7FEB70700E09387870F23A00700B70722
:1013100000E09387470F1307000898C382801301EA
:1013200081FB86C2A2C026DE513F3165130505B898
:10133000EFE01FEE23A201C2B71602409C4E371603
:1013400000FF7D1693E717029CCEB71701409387E5
:1013500007409843718F37863800518F98C3130622
:1013600000303707014010C741461307074010C33C
:1013700050C71307000298CB37071000B7E700E00B
:1013800023A0E7109C4E93E757039CCEEFF06F8AA3
:101390003755070013050530EFE09FE79387D1CD60
:1013A0003ED683C761C0F5DFB254A38201C09387E4
:1013B000C1CD138451C93ECEF247930660043387F2
:1013C000F440938741C93EC263E3E6689387140003
:1013D0003EC0F2471387140015463387E740924713
:1013E00003C5040013077704B386874093868604F9
:1013F000637FD66403C641C0631E06621306E00F16
:101400006317C55C03C61400938724003EC0BD4526
:1014100063E1C50221CE9306E6FF93F6F60FB545CC
:1014200063E8D50489658A0693850520AE969442C3
:1014300082861307D00F631BE60283C52400114781
:1014400009652300E400A300B4001305C51E238230
:10145000B1C0EFF0EFD303C741C009E723A401C631
:10146000238201C0938734003EC009048244A9B797
:10147000B7170140938707409843FD769386F60F90
:10148000758F32C21367071098C33707040098CBD3
:10149000EFF0EFF11246B947E31AF6FC2300A4007F
:1014A0000504E9B709651305451FEFF08FEDB71780
:1014B000014093870740114798CB4DBFB7170140B4
:1014C000938707409843FD769386F60F758F1367D1
:1014D000071098C337070400C5B703C7340083C695
:1014E00024002207558F131517003A951205EFE0D7
:1014F0003FD2938744003EC095BF653145B7EFF0BA
:101500004FE469BFA146E3D3E6F603C7740083C680
:10151000640003C634002207558F83C68400220668
:1015200083C59400C206D98E03C7240003C55400A6
:10153000E205598E03C744006205D58D4207518FDD
:10154000598DEFF0DFAE9387A4003EC081BF8D467A
:10155000E3DEE6F083C6340003C7240003C554006D
:10156000A206D98E03C74400620593051400420702
:10157000558F598D2EC2EFF0DF9C938764003EC0DB
:101580002300A4009245635A0500A3000400A38031
:10159000050023810500A38105001504C1BD9387C3
:1015A00081C623AC070023AE070023A0070223A2B5
:1015B000070223A407025DBD93063004E3D8E6EAE0
:1015C00083C6340003C72400A206D98E03C7440093
:1015D0004207558F83C65400E206B3E7E6003EC0DB
:1015E000938764003EC6EFF0CFF05D573DE9824738
:1015F000370700FFB7060008938707043EC88247F5
:101600007D8F630DD7003707000163E9E7003707D7
:10161000FF1FB3F6E70002CA639DE602138781C687
:101620005853938681C605CBD84A82471306F003E8
:101630007D173EC27D8F636CE600D85209E7EFF05C
:10164000FFBB2A8719ED9247424763E2E7028547CD
:101650003ECA82474DAAEFF07FBA2A87938681C699
:1016600061D5938764043EC02300E40015BDEFF00C
:101670005FB3631E053E37250240B70502004105F2
:10168000EFF0FF9A9245372502405105EFF03F9A5F
:10169000B705020037250240938505044105EFF0A8
:1016A0001F99EFF01FB06316053C372502408145B6
:1016B0004105EFF0DF979247938707043EC261B779
:1016C000D24763870710924793F707FC3ECC1387F6
:1016D00081C6584BE2463AC47D17758F93566740D2
:1016E00036D215E3938781C6984B85466D1763ED17
:1016F000E608EFF01FABC165372502404105EFF06A
:101700001F93EFF01FAA924702473387E7409307E2
:1017100007043ED08247FD5636DCBA973ED4930686
:10172000C00363CCE606938564001146BA95281879
:101730003AD8EFF06FA94257E25522553AD8EFF068
:101740001F8F425782571107E316F7FC938781C614
:10175000984B85466D1763EAE604A24713D7F74115
:101760001377F7033E97925719877D176394E70A1B
:1017700037250240B70521004105EFF05F8BEFF000
:101780005FA249C94D57F1BD37250240C1654105EA
:10179000EFF0FF89B705090085B713060004198E1D
:1017A000E35CC0F89385640051B7E24537250240F9
:1017B0005105EFF0DF87C1653725024093850504A9
:1017C0004105EFF0DF86EFF0DF9D29C5415751BDA0
:1017D000024792471146B385E7407D573ADC13072D
:1017E000C0036357B700130600040D8E6357C00093
:1017F000B2472818BE95EFF02F9DE2551245EFF045
:101800001F83924791073EC21247C247E36AF7EA35
:10181000014781BD924793870704F5B79D46E3D7FB
:10182000E6C403C72400B70600F903C63400FD165A
:1018300015CBB7150240D841758F93168601558F89
:10184000B7060004558FD8C1371601401842B706B5
:10185000F1FFFD16758FB7060B00558F18C29387E1
:10186000A40051B9371602405842758F58C2C5BFFF
:101870009D46E3DDE6BE83C6340003C72400A2060E
:10188000D98E03C744004207558F83C65400E20631
:10189000B3E7E60083C6740003C764003EC8A2062F
:1018A000D98E03C784004207558F83C69400E20691
:1018B000B3E7E6003ECA9387A4003EC09247930474
:1018C000140013075006858F938707043AC62147F3
:1018D0006355F70C138781C6144FB747524D938752
:1018E00047553EC4638AF60081456145EFE09FC2DB
:1018F000A247138781C61CCF4C181145EFF08F8E7D
:10190000634B0508525793770708D1CB3D8B93065D
:10191000B7FF994702C463E3D7049307C7FF3EC4E8
:101920008D463E8663F2F6022C1815453ED03ACC21
:10193000EFF04F8B62472C1813853400130697FF86
:10194000EFF08F8882570D469305510326853ECCD4
:10195000EFF08F87E247A69723800700C24789C729
:10196000D2451545EFE01FBBC2451145EFE09FBAD8
:10197000834781002300F400A247BE94B247FD17BD
:101980003EC681CF92475247C246858F9387070450
:10199000558F15DF19A02300A4002684C1BC814700
:1019A00002C4C9BF9D46E3D3E6AC03C724009386B7
:1019B00081C698CA03C7440003C634009387A400B5
:1019C0002207518FD8CA3EC023000400D1BC930621
:1019D000F00F630ED5069376150085CA8D46E3D7C2
:1019E000E6A883C6240003C7140083C54400A206EA
:1019F000D98E03C73400E20505814207558FD98D82
:101A0000EFE05FB193875400FDB4E351E0A6930487
:101A10001400A6850581EFE0FFFC2300A400E35E2F
:101A200005B6A300040023010400A301040023025F
:101A30000400A5B685476317F6029307F00F630805
:101A4000F500F9572300F400A300A400090492470D
:101A500005471D8C7D1423808700238301C0A3824A
:101A6000E1C081B223000400A300C400C5B74957F8
:101A7000CDBE4557FDB6311122C626C406C8931700
:101A800056003A8410C33E971853B2841305B0042D
:101A900019E31305300C544409476395E6043EC22C
:101AA0002AC02D2BB706674537270240938636128A
:101AB00014D7B796EFCD9386B69A14D7916654C7CC
:101AC0009306000814CBB7160240D852370600011F
:101AD0009247518F0245D8D237F700E0B706008011
:101AE0002328D7D0A2979C5799E7A1CC3244C24073
:101AF000A2445101E5A1FDF883C761C099CB9306CB
:101B0000A0050946814501453244C240A244510125
:101B1000E9A94454E1DCA147A68563D39700A14518
:101B2000AA86085C0146E114C9211C5CA1071CDCE3
:101B300063D30400814444D4C2403244A2445101DE
:101B400082805C4C4C54185C8E079D8DE350B0FA3B
:101B5000A14663D3B600A145AA8601463305F70026
:101B600065B70843311126C493145500B30297009A
:101B7000AE8783A5420206C822C66396C50493B504
:101B8000150023A2B2023A841387D6FF11E514444C
:101B9000E1E28D4663F9E60254449DCA05E99043AB
:101BA000B71634AA9386D62F6312D602D44337D6FB
:101BB000DD001306B6CBA206A1826399C6009D473D
:101BC0005CCC89475CC49306200D01A82326040041
:101BD00083C661C099CA9306A0053244C240A2449C
:101BE000094681450145510109A19306200D094689
:101BF000814501453EC23AC0CD2EB306940083A272
:101C0000C601D05602478E023306564092476353B0
:101C1000C7003A8636C06358C0021385C1CDBE8561
:101C20001695EFE07FDA330394008327C3018246E1
:101C30008507232EF300D8568E0763E6E700137757
:101C4000F70F2383E1C0C2403244A2445101828095
:101C500003D7470083D62700130600494207558F54
:101C600083D6670083D70700232E0400232C0402A9
:101C70002324040223260402232404008583639A78
:101C8000C7029307D03F6314F70085475CC493876E
:101C9000C1CD1CDC03C761C0814711EB1307800471
:101CA000B6876374D70093078004C207C1835CD4EE
:101CB00019BF1306000D6394C702938741C91CDC4A
:101CC00013078004B6876374D70093078004C207A4
:101CD000C1835CD485471CD4A38201C0EDB5130633
:101CE0000034639DC7028967938747289385070659
:101CF000368590436310E602D04310DC03C68700AC
:101D0000131306011353030163F366002A86420688
:101D1000418250D4B107E39EB7FC75B59306002805
:101D2000E393D7EA58C045B55D712AC03ECAB717DC
:101D3000014093870740884761892EC232C436C666
:101D40003AC826CE12D837320140130282C58C47DA
:101D5000E1896307052288476189631BB5028847CB
:101D600061896317B502884761896313B5028847A3
:101D70006189631FB50088476189631BB500884787
:101D800061896317B500884761896313B50009A0AD
:101D900022CC014616D01AD223200200884761893E
:101DA000630F05162D8DA98D09A009C909A08047CB
:101DB00061882D8C11E009A0C5B701001ED406DA98
:101DC000A144194401000100C166FD1629670507F9
:101DD0009303F10393020008010001002320020095
:101DE00088476189630D05122D8DA98D010013357A
:101DF00015000606498E7D15498C1D887D14FD143D
:101E0000E1F4930400061375C60009C55147F9466D
:101E1000130000002380C3009383130023200200DB
:101E2000884761892D8D0DC5A98D09A01944BDC9AB
:101E30001395F6017D858582798DA98E0582FD1425
:101E400013F5740061D9010001000100E1F8C1A897
:101E50007D1413F516007D15798D8582A98E058276
:101E60001366060811C8FD1413F5740045D501006A
:101E700001000100C5F465A0FD1413F5740009E527
:101E80002380C300938313002320020088476189C5
:101E900011C92D8DA98D41C5194401000D457D1530
:101EA0007DFDADFC13F574003DE99305F103882138
:101EB0008505970000009380C006930755FB4252AA
:101EC0001387C1C0C9C785EA92211375F6071D8221
:101ED0003D8A09446375860401C540236311A40447
:101EE000938747FCC1CFC517639407006FF0BFB855
:101EF0008917B5CB2DA02D640504818E8DE2B386A4
:101F0000B3408506938787F80146639407006FF016
:101F10005FC5C5170546639407006FF09FC4624410
:101F2000F24482521253A253D250F24442522246F9
:101F3000B2464247924509A0B707014093874741FF
:101F4000414588C30245D247616173002030104388
:101F500016063A967106484285452D8D48C20842BC
:101F6000050508C26DBF10C385450CC716063A9615
:101F70000CD281454CCE0CDE4CD255B710A345B7E0
:101F800037F500E021051387C1C00C4B104110CB81
:101F90000D8E50CBB165938505B80D8E85679387FF
:101FA00007FAE354F6F8FD7793870706E34FF6F652
:101FB0000C4FB2950CCFB5D93717024008431356D2
:101FC00035007D8A930770F07D8DB305B04013D640
:101FD000954041060E06518D08C381BFAA8617059C
:101FE00000001305A51389452E86411122C026C283
:101FF000B7170140938707409843B714F0FFFD14CB
:10200000658FB7240200458FB7041000A10484CB6C
:1020100098C337031800610312C49E0613E4060434
:10202000814209E6A962850241667D168E05AE836E
:1020300037320140130282C51947BD4511A0010086
:10204000A2860580858A7D1781E6B3C4640019479E
:1020500084CBFD1591C58D46FD16FDFE0100CDB763
:102060009E85ADC5FD156394020041667D16010095
:1020700000210505A286858A81CE0580937616000B
:10208000FD16B3F656000582358E7D1725CF29A89B
:1020900005809316F601FD86B3C4640084CB19470E
:1020A0000582B3F65600358E81C993F67500FD158D
:1020B000E1D209A0C1B70100638A020093D2820075
:1020C0009D45E38902FA1344F6FF6DB78D46FD1670
:1020D000FDFEB704180084CBA146FD16FDFEB70433
:1020E0000800C10484CB8443B7D6FCFFFD16F58CF1
:1020F000B7460400D58C84C3024492442242410175
:10210000828001009146FD16FDFEB3C464001947AC
:102110000100010084CB49BF000000001C035200F5
:10212000560053005700440049004F003000300073
:1021300033002D0030003100000000003203520057
:10214000560030003000330020005200560053008B
:102150005700440049004F002000500072006F00FB
:102160006700720061006D006D0065007200000084
:102170000E0343004E004C006F0068007200000028
:1021800004030904525652204558434550543A20FE
:10219000253038780A0000000A000000466F756E8E
:1021A000642052565357494F20696E7465726661B8
:1021B00063652E00466F756E642052565357442057
:1021C000696E746572666163650000004572726FC6
:1021D000723A20436F756C64206E6F74206765746B
:1021E000206861727420696E666F2E00504D202544
:1021F000640A0000506F77657220646F776E00008C
:10220000A4140000BC140000DA1400009E150000A5
:10221000FA140000FE140000041500004E15000022
:102220009E150000B81500001C1800007018000072
:1022300070140000A419000005FF09007508A10230
:10224000954E85AD0901B102C000000009022200CF
:10225000010100806409040000010300FF0009215E
:102260001001000122110007058103010064000034
:1022700012011001000000080612105D02000102A8
:1022800003010000000100007022000012000000A5
:10229000000200004C22000022000000002200008A
:1022A0003822000011000000002100005E22000022
:1022B000090000000003000080210000040000006D
:1022C00001030904702100000E000000020309044C
:1022D0003C21000032000000030309041C2100001F
:0422E0001C000000DE
:00000001FF
